{
  "_format": "hh-sol-artifact-1",
  "contractName": "PokemonFactory",
  "sourceName": "contracts/PokemonFactory.sol",
  "abi": [
    {
      "anonymous": false,
      "inputs": [
        {
          "indexed": false,
          "internalType": "address",
          "name": "editor",
          "type": "address"
        },
        {
          "indexed": false,
          "internalType": "string",
          "name": "name",
          "type": "string"
        }
      ],
      "name": "eventNewPokemon",
      "type": "event"
    },
    {
      "inputs": [
        {
          "internalType": "string",
          "name": "_name",
          "type": "string"
        },
        {
          "internalType": "uint256",
          "name": "_id",
          "type": "uint256"
        }
      ],
      "name": "createPokemon",
      "outputs": [],
      "stateMutability": "nonpayable",
      "type": "function"
    },
    {
      "inputs": [],
      "name": "getAllPokemons",
      "outputs": [
        {
          "components": [
            {
              "internalType": "uint256",
              "name": "id",
              "type": "uint256"
            },
            {
              "internalType": "string",
              "name": "name",
              "type": "string"
            }
          ],
          "internalType": "struct PokemonFactory.Pokemon[]",
          "name": "",
          "type": "tuple[]"
        }
      ],
      "stateMutability": "view",
      "type": "function"
    },
    {
      "inputs": [],
      "name": "getResult",
      "outputs": [
        {
          "internalType": "uint256",
          "name": "product",
          "type": "uint256"
        },
        {
          "internalType": "uint256",
          "name": "sum",
          "type": "uint256"
        }
      ],
      "stateMutability": "pure",
      "type": "function"
    },
    {
      "inputs": [
        {
          "internalType": "uint256",
          "name": "",
          "type": "uint256"
        },
        {
          "internalType": "uint256",
          "name": "",
          "type": "uint256"
        }
      ],
      "name": "pokemonHabilities",
      "outputs": [
        {
          "internalType": "string",
          "name": "name",
          "type": "string"
        },
        {
          "internalType": "string",
          "name": "description",
          "type": "string"
        }
      ],
      "stateMutability": "view",
      "type": "function"
    },
    {
      "inputs": [
        {
          "internalType": "uint256",
          "name": "",
          "type": "uint256"
        }
      ],
      "name": "pokemonToOwner",
      "outputs": [
        {
          "internalType": "address",
          "name": "",
          "type": "address"
        }
      ],
      "stateMutability": "view",
      "type": "function"
    }
  ],
  "bytecode": "0x608060405234801561001057600080fd5b50611002806100206000396000f3fe608060405234801561001057600080fd5b50600436106100575760003560e01c80630a3bd50b1461005c5780632f7467b3146100785780635c778444146100a85780635e916790146100d9578063de292789146100f7575b600080fd5b61007660048036038101906100719190610720565b610116565b005b610092600480360381019061008d919061077c565b6102f0565b60405161009f91906107ea565b60405180910390f35b6100c260048036038101906100bd9190610805565b610323565b6040516100d09291906108c4565b60405180910390f35b6100e1610464565b6040516100ee9190610a53565b60405180910390f35b6100ff61055f565b60405161010d929190610a84565b60405180910390f35b60008111610159576040517f08c379a000000000000000000000000000000000000000000000000000000000815260040161015090610af9565b60405180910390fd5b6000825111801561016b575060028251115b6101aa576040517f08c379a00000000000000000000000000000000000000000000000000000000081526004016101a190610bb1565b60405180910390fd5b600060405180604001604052808381526020018481525090806001815401808255809150506001900390600052602060002090600202016000909190919091506000820151816000015560208201518160010190816102099190610ddd565b505050336001600083815260200190815260200160002060006101000a81548173ffffffffffffffffffffffffffffffffffffffff021916908373ffffffffffffffffffffffffffffffffffffffff160217905550600260003373ffffffffffffffffffffffffffffffffffffffff1673ffffffffffffffffffffffffffffffffffffffff16815260200190815260200160002060008154809291906102ae90610ede565b91905055507fe5a4c13681fc1ec969a5d1e2a8f13730bca81a4041367c6493477d52103b1ce233836040516102e4929190610f26565b60405180910390a15050565b60016020528060005260406000206000915054906101000a900473ffffffffffffffffffffffffffffffffffffffff1681565b60036020528160005260406000206020528060005260406000206000915091505080600001805461035390610c00565b80601f016020809104026020016040519081016040528092919081815260200182805461037f90610c00565b80156103cc5780601f106103a1576101008083540402835291602001916103cc565b820191906000526020600020905b8154815290600101906020018083116103af57829003601f168201915b5050505050908060010180546103e190610c00565b80601f016020809104026020016040519081016040528092919081815260200182805461040d90610c00565b801561045a5780601f1061042f5761010080835404028352916020019161045a565b820191906000526020600020905b81548152906001019060200180831161043d57829003601f168201915b5050505050905082565b60606000805480602002602001604051908101604052809291908181526020016000905b828210156105565783829060005260206000209060020201604051806040016040529081600082015481526020016001820180546104c590610c00565b80601f01602080910402602001604051908101604052809291908181526020018280546104f190610c00565b801561053e5780601f106105135761010080835404028352916020019161053e565b820191906000526020600020905b81548152906001019060200180831161052157829003601f168201915b50505050508152505081526020019060010190610488565b50505050905090565b600080600060019050600060029050808261057a9190610f56565b935080826105889190610f98565b925050509091565b6000604051905090565b600080fd5b600080fd5b600080fd5b600080fd5b6000601f19601f8301169050919050565b7f4e487b7100000000000000000000000000000000000000000000000000000000600052604160045260246000fd5b6105f7826105ae565b810181811067ffffffffffffffff82111715610616576106156105bf565b5b80604052505050565b6000610629610590565b905061063582826105ee565b919050565b600067ffffffffffffffff821115610655576106546105bf565b5b61065e826105ae565b9050602081019050919050565b82818337600083830152505050565b600061068d6106888461063a565b61061f565b9050828152602081018484840111156106a9576106a86105a9565b5b6106b484828561066b565b509392505050565b600082601f8301126106d1576106d06105a4565b5b81356106e184826020860161067a565b91505092915050565b6000819050919050565b6106fd816106ea565b811461070857600080fd5b50565b60008135905061071a816106f4565b92915050565b600080604083850312156107375761073661059a565b5b600083013567ffffffffffffffff8111156107555761075461059f565b5b610761858286016106bc565b92505060206107728582860161070b565b9150509250929050565b6000602082840312156107925761079161059a565b5b60006107a08482850161070b565b91505092915050565b600073ffffffffffffffffffffffffffffffffffffffff82169050919050565b60006107d4826107a9565b9050919050565b6107e4816107c9565b82525050565b60006020820190506107ff60008301846107db565b92915050565b6000806040838503121561081c5761081b61059a565b5b600061082a8582860161070b565b925050602061083b8582860161070b565b9150509250929050565b600081519050919050565b600082825260208201905092915050565b60005b8381101561087f578082015181840152602081019050610864565b60008484015250505050565b600061089682610845565b6108a08185610850565b93506108b0818560208601610861565b6108b9816105ae565b840191505092915050565b600060408201905081810360008301526108de818561088b565b905081810360208301526108f2818461088b565b90509392505050565b600081519050919050565b600082825260208201905092915050565b6000819050602082019050919050565b610930816106ea565b82525050565b600082825260208201905092915050565b600061095282610845565b61095c8185610936565b935061096c818560208601610861565b610975816105ae565b840191505092915050565b60006040830160008301516109986000860182610927565b50602083015184820360208601526109b08282610947565b9150508091505092915050565b60006109c98383610980565b905092915050565b6000602082019050919050565b60006109e9826108fb565b6109f38185610906565b935083602082028501610a0585610917565b8060005b85811015610a415784840389528151610a2285826109bd565b9450610a2d836109d1565b925060208a01995050600181019050610a09565b50829750879550505050505092915050565b60006020820190508181036000830152610a6d81846109de565b905092915050565b610a7e816106ea565b82525050565b6000604082019050610a996000830185610a75565b610aa66020830184610a75565b9392505050565b7f4c61206964206465626520736572206d61796f72207175652030000000000000600082015250565b6000610ae3601a83610850565b9150610aee82610aad565b602082019050919050565b60006020820190508181036000830152610b1281610ad6565b9050919050565b7f456c206e6f6d627265206e6f20707565646520657374617220766163696f206f60008201527f20646562652074656e657220616c206d656e6f7320322063617261637465726560208201527f7300000000000000000000000000000000000000000000000000000000000000604082015250565b6000610b9b604183610850565b9150610ba682610b19565b606082019050919050565b60006020820190508181036000830152610bca81610b8e565b9050919050565b7f4e487b7100000000000000000000000000000000000000000000000000000000600052602260045260246000fd5b60006002820490506001821680610c1857607f821691505b602082108103610c2b57610c2a610bd1565b5b50919050565b60008190508160005260206000209050919050565b60006020601f8301049050919050565b600082821b905092915050565b600060088302610c937fffffffffffffffffffffffffffffffffffffffffffffffffffffffffffffffff82610c56565b610c9d8683610c56565b95508019841693508086168417925050509392505050565b6000819050919050565b6000610cda610cd5610cd0846106ea565b610cb5565b6106ea565b9050919050565b6000819050919050565b610cf483610cbf565b610d08610d0082610ce1565b848454610c63565b825550505050565b600090565b610d1d610d10565b610d28818484610ceb565b505050565b5b81811015610d4c57610d41600082610d15565b600181019050610d2e565b5050565b601f821115610d9157610d6281610c31565b610d6b84610c46565b81016020851015610d7a578190505b610d8e610d8685610c46565b830182610d2d565b50505b505050565b600082821c905092915050565b6000610db460001984600802610d96565b1980831691505092915050565b6000610dcd8383610da3565b9150826002028217905092915050565b610de682610845565b67ffffffffffffffff811115610dff57610dfe6105bf565b5b610e098254610c00565b610e14828285610d50565b600060209050601f831160018114610e475760008415610e35578287015190505b610e3f8582610dc1565b865550610ea7565b601f198416610e5586610c31565b60005b82811015610e7d57848901518255600182019150602085019450602081019050610e58565b86831015610e9a5784890151610e96601f891682610da3565b8355505b6001600288020188555050505b505050505050565b7f4e487b7100000000000000000000000000000000000000000000000000000000600052601160045260246000fd5b6000610ee9826106ea565b91507fffffffffffffffffffffffffffffffffffffffffffffffffffffffffffffffff8203610f1b57610f1a610eaf565b5b600182019050919050565b6000604082019050610f3b60008301856107db565b8181036020830152610f4d818461088b565b90509392505050565b6000610f61826106ea565b9150610f6c836106ea565b9250828202610f7a816106ea565b91508282048414831517610f9157610f90610eaf565b5b5092915050565b6000610fa3826106ea565b9150610fae836106ea565b9250828201905080821115610fc657610fc5610eaf565b5b9291505056fea264697066735822122078ee5dee4b53d5aa43933aca47d732051b14408ff596c090b165cbb7dc747c4564736f6c63430008120033",
  "linkReferences": {},
  "deployedLinkReferences": {}
}