{
  "_format": "hh-sol-artifact-1",
  "contractName": "PokemonFactory",
  "sourceName": "contracts/PokemonFactory.sol",
  "abi": [
    {
      "anonymous": false,
      "inputs": [
        {
          "indexed": false,
          "internalType": "address",
          "name": "editor",
          "type": "address"
        },
        {
          "indexed": false,
          "internalType": "string",
          "name": "name",
          "type": "string"
        }
      ],
      "name": "eventNewPokemon",
      "type": "event"
    },
    {
      "inputs": [
        {
          "internalType": "string",
          "name": "_name",
          "type": "string"
        },
        {
          "internalType": "uint256",
          "name": "_id",
          "type": "uint256"
        }
      ],
      "name": "createPokemon",
      "outputs": [],
      "stateMutability": "nonpayable",
      "type": "function"
    },
    {
      "inputs": [],
      "name": "getAllPokemons",
      "outputs": [
        {
          "components": [
            {
              "internalType": "uint256",
              "name": "id",
              "type": "uint256"
            },
            {
              "internalType": "string",
              "name": "name",
              "type": "string"
            }
          ],
          "internalType": "struct PokemonFactory.Pokemon[]",
          "name": "",
          "type": "tuple[]"
        }
      ],
      "stateMutability": "view",
      "type": "function"
    },
    {
      "inputs": [],
      "name": "getResult",
      "outputs": [
        {
          "internalType": "uint256",
          "name": "product",
          "type": "uint256"
        },
        {
          "internalType": "uint256",
          "name": "sum",
          "type": "uint256"
        }
      ],
      "stateMutability": "pure",
      "type": "function"
    },
    {
      "inputs": [
        {
          "internalType": "uint256",
          "name": "",
          "type": "uint256"
        }
      ],
      "name": "pokemonToOwner",
      "outputs": [
        {
          "internalType": "address",
          "name": "",
          "type": "address"
        }
      ],
      "stateMutability": "view",
      "type": "function"
    }
  ],
  "bytecode": "0x608060405234801561001057600080fd5b50610e0e806100206000396000f3fe608060405234801561001057600080fd5b506004361061004c5760003560e01c80630a3bd50b146100515780632f7467b31461006d5780635e9167901461009d578063de292789146100bb575b600080fd5b61006b600480360381019061006691906105a3565b6100da565b005b610087600480360381019061008291906105ff565b6102b4565b604051610094919061066d565b60405180910390f35b6100a56102e7565b6040516100b29190610815565b60405180910390f35b6100c36103e2565b6040516100d1929190610846565b60405180910390f35b6000811161011d576040517f08c379a0000000000000000000000000000000000000000000000000000000008152600401610114906108cc565b60405180910390fd5b6000825111801561012f575060028251115b61016e576040517f08c379a000000000000000000000000000000000000000000000000000000000815260040161016590610984565b60405180910390fd5b600060405180604001604052808381526020018481525090806001815401808255809150506001900390600052602060002090600202016000909190919091506000820151816000015560208201518160010190816101cd9190610bb0565b505050336001600083815260200190815260200160002060006101000a81548173ffffffffffffffffffffffffffffffffffffffff021916908373ffffffffffffffffffffffffffffffffffffffff160217905550600260003373ffffffffffffffffffffffffffffffffffffffff1673ffffffffffffffffffffffffffffffffffffffff168152602001908152602001600020600081548092919061027290610cb1565b91905055507fe5a4c13681fc1ec969a5d1e2a8f13730bca81a4041367c6493477d52103b1ce233836040516102a8929190610d32565b60405180910390a15050565b60016020528060005260406000206000915054906101000a900473ffffffffffffffffffffffffffffffffffffffff1681565b60606000805480602002602001604051908101604052809291908181526020016000905b828210156103d9578382906000526020600020906002020160405180604001604052908160008201548152602001600182018054610348906109d3565b80601f0160208091040260200160405190810160405280929190818152602001828054610374906109d3565b80156103c15780601f10610396576101008083540402835291602001916103c1565b820191906000526020600020905b8154815290600101906020018083116103a457829003601f168201915b5050505050815250508152602001906001019061030b565b50505050905090565b60008060006001905060006002905080826103fd9190610d62565b9350808261040b9190610da4565b925050509091565b6000604051905090565b600080fd5b600080fd5b600080fd5b600080fd5b6000601f19601f8301169050919050565b7f4e487b7100000000000000000000000000000000000000000000000000000000600052604160045260246000fd5b61047a82610431565b810181811067ffffffffffffffff8211171561049957610498610442565b5b80604052505050565b60006104ac610413565b90506104b88282610471565b919050565b600067ffffffffffffffff8211156104d8576104d7610442565b5b6104e182610431565b9050602081019050919050565b82818337600083830152505050565b600061051061050b846104bd565b6104a2565b90508281526020810184848401111561052c5761052b61042c565b5b6105378482856104ee565b509392505050565b600082601f83011261055457610553610427565b5b81356105648482602086016104fd565b91505092915050565b6000819050919050565b6105808161056d565b811461058b57600080fd5b50565b60008135905061059d81610577565b92915050565b600080604083850312156105ba576105b961041d565b5b600083013567ffffffffffffffff8111156105d8576105d7610422565b5b6105e48582860161053f565b92505060206105f58582860161058e565b9150509250929050565b6000602082840312156106155761061461041d565b5b60006106238482850161058e565b91505092915050565b600073ffffffffffffffffffffffffffffffffffffffff82169050919050565b60006106578261062c565b9050919050565b6106678161064c565b82525050565b6000602082019050610682600083018461065e565b92915050565b600081519050919050565b600082825260208201905092915050565b6000819050602082019050919050565b6106bd8161056d565b82525050565b600081519050919050565b600082825260208201905092915050565b60005b838110156106fd5780820151818401526020810190506106e2565b60008484015250505050565b6000610714826106c3565b61071e81856106ce565b935061072e8185602086016106df565b61073781610431565b840191505092915050565b600060408301600083015161075a60008601826106b4565b50602083015184820360208601526107728282610709565b9150508091505092915050565b600061078b8383610742565b905092915050565b6000602082019050919050565b60006107ab82610688565b6107b58185610693565b9350836020820285016107c7856106a4565b8060005b8581101561080357848403895281516107e4858261077f565b94506107ef83610793565b925060208a019950506001810190506107cb565b50829750879550505050505092915050565b6000602082019050818103600083015261082f81846107a0565b905092915050565b6108408161056d565b82525050565b600060408201905061085b6000830185610837565b6108686020830184610837565b9392505050565b600082825260208201905092915050565b7f4c61206964206465626520736572206d61796f72207175652030000000000000600082015250565b60006108b6601a8361086f565b91506108c182610880565b602082019050919050565b600060208201905081810360008301526108e5816108a9565b9050919050565b7f456c206e6f6d627265206e6f20707565646520657374617220766163696f206f60008201527f20646562652074656e657220616c206d656e6f7320322063617261637465726560208201527f7300000000000000000000000000000000000000000000000000000000000000604082015250565b600061096e60418361086f565b9150610979826108ec565b606082019050919050565b6000602082019050818103600083015261099d81610961565b9050919050565b7f4e487b7100000000000000000000000000000000000000000000000000000000600052602260045260246000fd5b600060028204905060018216806109eb57607f821691505b6020821081036109fe576109fd6109a4565b5b50919050565b60008190508160005260206000209050919050565b60006020601f8301049050919050565b600082821b905092915050565b600060088302610a667fffffffffffffffffffffffffffffffffffffffffffffffffffffffffffffffff82610a29565b610a708683610a29565b95508019841693508086168417925050509392505050565b6000819050919050565b6000610aad610aa8610aa38461056d565b610a88565b61056d565b9050919050565b6000819050919050565b610ac783610a92565b610adb610ad382610ab4565b848454610a36565b825550505050565b600090565b610af0610ae3565b610afb818484610abe565b505050565b5b81811015610b1f57610b14600082610ae8565b600181019050610b01565b5050565b601f821115610b6457610b3581610a04565b610b3e84610a19565b81016020851015610b4d578190505b610b61610b5985610a19565b830182610b00565b50505b505050565b600082821c905092915050565b6000610b8760001984600802610b69565b1980831691505092915050565b6000610ba08383610b76565b9150826002028217905092915050565b610bb9826106c3565b67ffffffffffffffff811115610bd257610bd1610442565b5b610bdc82546109d3565b610be7828285610b23565b600060209050601f831160018114610c1a5760008415610c08578287015190505b610c128582610b94565b865550610c7a565b601f198416610c2886610a04565b60005b82811015610c5057848901518255600182019150602085019450602081019050610c2b565b86831015610c6d5784890151610c69601f891682610b76565b8355505b6001600288020188555050505b505050505050565b7f4e487b7100000000000000000000000000000000000000000000000000000000600052601160045260246000fd5b6000610cbc8261056d565b91507fffffffffffffffffffffffffffffffffffffffffffffffffffffffffffffffff8203610cee57610ced610c82565b5b600182019050919050565b6000610d04826106c3565b610d0e818561086f565b9350610d1e8185602086016106df565b610d2781610431565b840191505092915050565b6000604082019050610d47600083018561065e565b8181036020830152610d598184610cf9565b90509392505050565b6000610d6d8261056d565b9150610d788361056d565b9250828202610d868161056d565b91508282048414831517610d9d57610d9c610c82565b5b5092915050565b6000610daf8261056d565b9150610dba8361056d565b9250828201905080821115610dd257610dd1610c82565b5b9291505056fea264697066735822122066f45e4fb4445f42e9a9bb64882a6777a87ad23e04ff4b3cae1b14dfd6e514c464736f6c63430008120033",
  "linkReferences": {},
  "deployedLinkReferences": {}
}